:020000040800F2
:1000000078060020CD01000841040008AB03000879
:100010003D04000887020008EF0800080000000007
:10002000000000000000000000000000390500088A
:100030008B020008000000004304000825060008A9
:10004000E7010008E7010008E7010008E7010008F0
:10005000E7010008E7010008E7010008E7010008E0
:10006000E7010008E7010008E7010008E7010008D0
:10007000E7010008E7010008E7010008E7010008C0
:10008000E7010008E7010008E7010008E7010008B0
:10009000E7010008E7010008E7010008E7010008A0
:1000A000E7010008E7010008E7010008E701000890
:1000B000E701000889060008E7010008E7010008D9
:1000C000E7010008E7010008E7010008E701000870
:1000D000E7010008E7010008E7010008E701000860
:1000E000E7010008E7010008E7010008E701000850
:1000F000E7010008E7010008E7010008E701000840
:10010000E7010008E7010008E7010008E70100082F
:10011000E7010008E7010008E7010008E70100081F
:10012000E7010008E7010008E7010008E70100080F
:1001300000F002F800F03AF80AA090E8000C8244BF
:100140008344AAF10107DA4501D100F02FF8AFF29C
:10015000090EBAE80F0013F0010F18BFFB1A43F0A5
:1001600001031847D8070000F8070000103A24BF21
:1001700078C878C1FAD8520724BF30C830C144BF0C
:1001800004680C607047000000230024002500264E
:10019000103A28BF78C1FBD8520728BF30C148BFEA
:1001A0000B6070471FB51FBD10B510BD00F031F8D2
:1001B0001146FFF7F7FF00F0A5FB00F04FF803B47E
:1001C000FFF7F2FF03BC00F057F800000948804732
:1001D00009480047FEE7FEE7FEE7FEE7FEE7FEE729
:1001E000FEE7FEE7FEE7FEE704480549054A064B41
:1001F000704700002906000831010008780000203F
:1002000078060020780200207802002070477047AE
:100210007047754600F02CF8AE4605006946534617
:1002200020F00700854618B020B5FFF7DDFFBDE8D8
:1002300020404FF000064FF000074FF000084FF04D
:10024000000B21F00701AC46ACE8C009ACE8C009DE
:10025000ACE8C009ACE8C0098D46704710B504464B
:10026000AFF300802046BDE81040FFF7A8BF0000B4
:10027000004870471800002001491820ABBEFEE777
:1002800026000200704700BFFEE770472DE9F041ED
:10029000024600250026002000230024002791F8B4
:1002A00003C00CF00F0591F803C00CF0100CBCF16A
:1002B000000F03D091F802C04CEA050591F800C088
:1002C000BCF1000F31D0146800202BE04FF0010C7E
:1002D0000CFA00F3B1F800C00CEA03069E4220D1EC
:1002E00083004FF00F0C0CFA03F7BC4305FA03FC34
:1002F0004CEA040491F803C0BCF1280F06D14FF07A
:10030000010C0CFA00FCC2F814C00AE091F803C01A
:10031000BCF1480F05D14FF0010C0CFA00FCC2F8FB
:1003200010C0401C0828D1D31460B1F800C0BCF143
:10033000FF0F34DD546800202EE000F1080C4FF070
:10034000010808FA0CF3B1F800C00CEA03069E425B
:1003500021D183004FF00F0C0CFA03F7BC4305FAD0
:1003600003FC4CEA040491F803C0BCF1280F05D14A
:1003700000F1080C08FA0CF8C2F8148091F803C0D8
:10038000BCF1480F07D100F1080C4FF0010808FA42
:100390000CF8C2F81080401C0828CED35460BDE889
:1003A000F081416170470161704700BFFEE70000C6
:1003B00008B50121242000F045F810208DF8030035
:1003C0004FF48270ADF8000003208DF802006946FA
:1003D0000848FFF75BFF10208DF803004FF4827090
:1003E000ADF8000003208DF8020069460248FFF7CF
:1003F0004DFF08BD000801400014014010B54FF446
:1004000082710448FFF7CFFF4FF482710248FFF773
:10041000CAFF10BD000801400014014010B54FF4A0
:1004200082710448FFF7BDFF4FF482710248FFF765
:10043000B8FF10BD000801400014014000BFFEE7F6
:100440007047704729B1064A92690243044B9A618A
:1004500004E0034A92698243014B9A6170470000AD
:100460000010024030B500210022002400232D4D51
:100470006D6805F00C0121B1042905D0082923D1AC
:1004800005E0294D056022E0274D05601FE0254D60
:100490006D6805F47012234D6D6805F480340225F3
:1004A00005EB92421CB9214D554305600BE01D4DF3
:1004B0006D6805F400351DB11C4D5543056002E023
:1004C000194D5543056002E0174D056000BF00BFA0
:1004D000144D6D6805F0F0010909154D6B5C056858
:1004E000DD4045600F4D6D6805F4E061090A104D6F
:1004F0006B5C4568DD4085600A4D6D6805F46051B0
:10050000C90A0B4D6B5C4568DD40C560054D6D68E3
:1005100005F44041890B074D6B5CC568B5FBF3F5ED
:10052000056130BD0010024000127A0000093D0054
:100530000000002010000020704710B500F002F805
:1005400010BD00000CB500200190009033480068F9
:1005500040F480303149086000BF3048006800F442
:10056000003000900198401C0190009818B9019843
:10057000B0F5A06FF1D12948006800F4003010B147
:100580000120009001E0002000900098012843D154
:100590002348006840F010002149086008460068C0
:1005A00020F0030008600846006840F00200086080
:1005B0001A4840681949486008464068486008463B
:1005C000406840F4806048600846406820F47C1031
:1005D00048600846406840F4E810486008460068F3
:1005E00040F08070086000BF0C48006800F00070A8
:1005F0000028F9D00948406820F003000749486006
:100600000846406840F00200486000BF0348406868
:1006100000F00C000828F9D10CBD000000100240C9
:10062000002002407047000010B51348006840F0F9
:1006300001001149086008464068104908400E4909
:100640004860084600680E4908400B4908600846A3
:10065000006820F4802008600846406820F4FE000E
:1006600048604FF41F008860FFF767FF4FF000609D
:100670000449086010BD0000001002400000FFF8AF
:10068000FFFFF6FE08ED00E010B501210E4800F076
:1006900022F8C0B10D48007810B101280ED107E052
:1006A000FFF7BCFE09480078401C0849087005E0C7
:1006B000FFF7A4FE00200549087000BF00BF01211C
:1006C000014800F005F810BD0004004014000020AF
:1006D000CA430282704730B502460020002300243E
:1006E000158A05EA0103958905EA010413B10CB1E5
:1006F000012000E0002030BD00B585B0012144F2AA
:100700000400FFF79FFE4FF40070ADF810000320C7
:100710008DF8120018208DF8130004A91348FFF774
:10072000B5FD4FF48060ADF8100004208DF8130083
:1007300004A90E48FFF7AAFD4FF4165000900020C0
:10074000ADF80C000C20ADF80A000020ADF8080050
:10075000ADF80600ADF804006946054800F024F83D
:100760000121034800F006F805B000BD0008014073
:100770000038014021B1828942F40052828104E0B4
:1007800082894DF6FF731A4082817047024600202D
:10079000B1F5007F00D100BF13880B400BB10120E1
:1007A00000E00020704700002DE9F04786B00546C4
:1007B0000E460024A24600BFA1460027B08900B122
:1007C00000BF2F462C8A4CF6FF700440F08804438B
:1007D0002C82AC894EF6F3100440B088318908436E
:1007E000718908430443AC81AC8A4FF6FF40044052
:1007F000B0890443AC8201A8FFF734FE1F4887424A
:1008000002D1DDF810A001E0DDF80CA0A88900F409
:10081000004040B10AEBCA0000EB0A103168490001
:10082000B0FBF1F807E00AEBCA0000EB0A103168F0
:100830008900B0FBF1F86420B8FBF0F00401200956
:10084000642101FB1089A88900F4004040B13220E6
:1008500000EBC900B0FBF1F000F00700044308E032
:10086000322000EB09106421B0FBF1F000F00F0022
:1008700004432C8106B0BDE8F08700000038014039
:1008800010B5044600BF20212046FFF77FFF002857
:10089000F9D0024800F004F8C0B210BD00380140A1
:1008A00001468888C0F30800704770B504460D46BD
:1008B000C5F30800A08000BF80212046FFF766FF37
:1008C0000028F9D070BD70B505460C4604E014F858
:1008D000011B2846FFF7E9FF20780028F7D100BF69
:1008E00040212846FFF752FF0028F9D070BD00BF15
:1008F000FEE74FF0E020006920F004004FF0E02117
:1009000008617047FFF754FDFFF7F6FEFFF7F1FFB0
:1009100006A10948FFF7D7FF07E00748FFF7B0FF38
:1009200084B221460448FFF7C0FFF6E7D0A1C0AC6F
:10093000BBF8C5B6A3A10000003801405C0900085F
:1009400000000020180000006C0100087409000875
:100950001800002060060000880100080000000068
:100960000102030401020304060708090204060841
:040970000000000083
:04000005080001CD21
:00000001FF
